{
  "contractName": "Voting",
  "abi": [
    {
      "constant": true,
      "inputs": [],
      "name": "candidatesCount",
      "outputs": [
        {
          "name": "",
          "type": "uint256"
        }
      ],
      "payable": false,
      "stateMutability": "view",
      "type": "function",
      "signature": "0x2d35a8a2"
    },
    {
      "constant": true,
      "inputs": [
        {
          "name": "",
          "type": "uint256"
        }
      ],
      "name": "candidates",
      "outputs": [
        {
          "name": "id",
          "type": "uint256"
        },
        {
          "name": "databaseID",
          "type": "uint256"
        },
        {
          "name": "voteCount",
          "type": "uint256"
        }
      ],
      "payable": false,
      "stateMutability": "view",
      "type": "function",
      "signature": "0x3477ee2e"
    },
    {
      "constant": true,
      "inputs": [
        {
          "name": "",
          "type": "uint256"
        }
      ],
      "name": "voters",
      "outputs": [
        {
          "name": "",
          "type": "bool"
        }
      ],
      "payable": false,
      "stateMutability": "view",
      "type": "function",
      "signature": "0xda58c7d9"
    },
    {
      "inputs": [],
      "payable": false,
      "stateMutability": "nonpayable",
      "type": "constructor",
      "signature": "constructor"
    },
    {
      "constant": false,
      "inputs": [
        {
          "name": "_databaseID",
          "type": "uint256"
        }
      ],
      "name": "addCandidate",
      "outputs": [],
      "payable": false,
      "stateMutability": "nonpayable",
      "type": "function",
      "signature": "0xe844d097"
    },
    {
      "constant": false,
      "inputs": [
        {
          "name": "_candidateID",
          "type": "uint256"
        },
        {
          "name": "_databaseID",
          "type": "uint256"
        }
      ],
      "name": "vote",
      "outputs": [],
      "payable": false,
      "stateMutability": "nonpayable",
      "type": "function",
      "signature": "0xb384abef"
    }
  ],
  "bytecode": "0x608060405234801561001057600080fd5b506100246000640100000000610029810204565b610070565b600280546001908101808355604080516060810182528281526020808201968752600082840181815294815290859052919091209051815593519184019190915551910155565b61025a8061007f6000396000f3fe60806040526004361061006c5763ffffffff7c01000000000000000000000000000000000000000000000000000000006000350416632d35a8a281146100715780633477ee2e14610098578063b384abef146100e0578063da58c7d914610112578063e844d09714610150575b600080fd5b34801561007d57600080fd5b5061008661017a565b60408051918252519081900360200190f35b3480156100a457600080fd5b506100c2600480360360208110156100bb57600080fd5b5035610180565b60408051938452602084019290925282820152519081900360600190f35b3480156100ec57600080fd5b506101106004803603604081101561010357600080fd5b50803590602001356101a0565b005b34801561011e57600080fd5b5061013c6004803603602081101561013557600080fd5b50356101d2565b604080519115158252519081900360200190f35b34801561015c57600080fd5b506101106004803603602081101561017357600080fd5b50356101e7565b60025481565b600160208190526000918252604090912080549181015460029091015483565b600090815260208181526040808320805460ff1916600190811790915593835290839052902060020180549091019055565b60006020819052908152604090205460ff1681565b60028054600190810180835560408051606081018252828152602080820196875260008284018181529481529085905291909120905181559351918401919091555191015556fea165627a7a723058204212781b7248e65abc9a364904b86fa53d1c5d13808fadd1ef5ca6cd6ad02f0b0029",
  "source": "pragma solidity ^0.5.0;\r\n\r\ncontract Voting {\r\n    // Model a Candidate\r\n    struct Candidate {\r\n        uint id;\r\n        uint databaseID;\r\n        uint voteCount;\r\n    }\r\n\r\n    // Store accounts that have voted\r\n    mapping (uint=>bool) public voters;\r\n\r\n    // Store candidate\r\n    // Read Candidate\r\n    mapping (uint=>Candidate) public candidates;\r\n    \r\n    // Store Candidate Count\r\n    // Using counterCache to determine how many Candidates are there after mapping\r\n    // Helpful for accessing each Candidate inside loops\r\n    uint public candidatesCount;\r\n\r\n    // Constructor\r\n    constructor () public { \r\n        addCandidate(0);\r\n        // for (uint8 i = 0; i < 99; i++) {\r\n        //     addCandidate(i);\r\n        // }\r\n    }\r\n\r\n    // Add Candidate\r\n    function addCandidate(uint _databaseID) public {\r\n        candidatesCount++;\r\n        // Instantiate the candidate\r\n        candidates[candidatesCount] = Candidate(candidatesCount, _databaseID, 0);\r\n    }\r\n\r\n    // Voting\r\n    // Read candidate from mapping, increase voteCount from that candidate\r\n    function vote(uint _candidateID, uint _databaseID) public {\r\n        // Record that the voter has voted, to ensure that the voter can vote once\r\n        // Access the voter using msg.sender\r\n        // Add the voter to voters mapping and set the value to true\r\n        voters[_databaseID] = true;\r\n\r\n        // Increase the vote count of the voted candidate\r\n        candidates[_candidateID].voteCount++;\r\n    }\r\n}",
  "sourcePath": "D:/Work/election/contracts/Voting.sol",
  "compiler": {
    "name": "solc",
    "version": "0.5.0+commit.1d4f565a.Emscripten.clang"
  },
  "schemaVersion": "3.0.1",
  "updatedAt": "2019-01-25T11:06:54.127Z",
  "devdoc": {
    "methods": {}
  },
  "userdoc": {
    "methods": {}
  }
}